{
  "transactions": [
    {
      "hash": "0x7a9d7767dfac471cf8e65cd4553d01add4425e0bb74fbad2dee6e8c00bd1d2ee",
      "transactionType": "CALL",
      "contractName": null,
      "contractAddress": "0xb1860d529182ac3bc1f51fa2abd56662b7d13f33",
      "function": "initialize((address,address,uint24,int24,address),uint160)",
      "arguments": [
        "(0x2cFc85d8E48F8EAB294be644d9E25C3030863003, 0x79A02482A880bCE3F13e09Da970dC34db4CD24d1, 3000, 60, 0x31E40b7CfC3dF606272ba24A7d961466a5Dc1000)",
        "79228162514264337593543950336"
      ],
      "transaction": {
        "from": "0x2f131a86c5cb54685f0e940b920c54e152a44b02",
        "to": "0xb1860d529182ac3bc1f51fa2abd56662b7d13f33",
        "value": "0x0",
        "input": "0x6276cbbe0000000000000000000000002cfc85d8e48f8eab294be644d9e25c303086300300000000000000000000000079a02482a880bce3f13e09da970dc34db4cd24d10000000000000000000000000000000000000000000000000000000000000bb8000000000000000000000000000000000000000000000000000000000000003c00000000000000000000000031e40b7cfc3df606272ba24a7d961466a5dc10000000000000000000000000000000000000000001000000000000000000000000",
        "nonce": "0x5",
        "chainId": "0x1e0"
      },
      "additionalContracts": [],
      "isFixedGasLimit": false
    }
  ],
  "receipts": [
    {
      "status": "0x1",
      "cumulativeGasUsed": "0xf38186",
      "logs": [
        {
          "address": "0xb1860d529182ac3bc1f51fa2abd56662b7d13f33",
          "topics": [
            "0xdd466e674ea557f56295e2d0218a125ea4b4f0f6f3307b95f85e6110838d6438",
            "0x2c8e14feec16e9f12e0767634d5bb06e93028615d9bb6da7a6a46e5ce7255382",
            "0x0000000000000000000000002cfc85d8e48f8eab294be644d9e25c3030863003",
            "0x00000000000000000000000079a02482a880bce3f13e09da970dc34db4cd24d1"
          ],
          "data": "0x0000000000000000000000000000000000000000000000000000000000000bb8000000000000000000000000000000000000000000000000000000000000003c00000000000000000000000031e40b7cfc3df606272ba24a7d961466a5dc100000000000000000000000000000000000000000010000000000000000000000000000000000000000000000000000000000000000000000000000000000000000",
          "blockHash": "0xb4d90fa17db94d982c3732ad4e61491ddc6b0d28449b891c0b64ad0c3e3664e2",
          "blockNumber": "0xbb5f80",
          "transactionHash": "0x7a9d7767dfac471cf8e65cd4553d01add4425e0bb74fbad2dee6e8c00bd1d2ee",
          "transactionIndex": "0x9",
          "logIndex": "0x72",
          "removed": false
        },
        {
          "address": "0x31e40b7cfc3df606272ba24a7d961466a5dc1000",
          "topics": [
            "0xe54330d463931a9c09a3a8aa62426498212833c904ea12e3fdbc1c463523ec25"
          ],
          "data": "0x0000000000000000000000002cfc85d8e48f8eab294be644d9e25c303086300300000000000000000000000079a02482a880bce3f13e09da970dc34db4cd24d10000000000000000000000000000000000000000000000000000000000000bb8000000000000000000000000000000000000000000000000000000000000003c00000000000000000000000031e40b7cfc3df606272ba24a7d961466a5dc1000",
          "blockHash": "0xb4d90fa17db94d982c3732ad4e61491ddc6b0d28449b891c0b64ad0c3e3664e2",
          "blockNumber": "0xbb5f80",
          "transactionHash": "0x7a9d7767dfac471cf8e65cd4553d01add4425e0bb74fbad2dee6e8c00bd1d2ee",
          "transactionIndex": "0x9",
          "logIndex": "0x73",
          "removed": false
        }
      ],
      "logsBloom": "0x00000000000000000000000000000000000000000000000020000000000000000000000000000000000200000000000000002000000000000000000000000000200000000000000000000000000000000800000000000000000001000000200000000000200000000000004000000000000000100000000000000000000000000000000000000008000000400000000400000001000000000000000800200000000000000000000000000000000000000000000000000000000000000010000000000000000000200000000000000000000000000000000000000000400000000000000000000000000000000000000000010000000000002000000000000000",
      "type": "0x2",
      "transactionHash": "0x7a9d7767dfac471cf8e65cd4553d01add4425e0bb74fbad2dee6e8c00bd1d2ee",
      "transactionIndex": "0x9",
      "blockHash": "0xb4d90fa17db94d982c3732ad4e61491ddc6b0d28449b891c0b64ad0c3e3664e2",
      "blockNumber": "0xbb5f80",
      "gasUsed": "0x1e628",
      "effectiveGasPrice": "0x385",
      "from": "0x2f131a86c5cb54685f0e940b920c54e152a44b02",
      "to": "0xb1860d529182ac3bc1f51fa2abd56662b7d13f33",
      "contractAddress": null,
      "l1BaseFeeScalar": "0x21f9",
      "l1BlobBaseFee": "0x1",
      "l1BlobBaseFeeScalar": "0xdd3ef",
      "l1Fee": "0x1de476b81",
      "l1GasPrice": "0x18e38585",
      "l1GasUsed": "0x8a1"
    }
  ],
  "libraries": [],
  "pending": [],
  "returns": {},
  "timestamp": 1743895000,
  "chain": 480,
  "commit": "35bbee6e"
}