{
  "transactions": [
    {
      "hash": "0x5863bb8fb2001a0e3d931798d15bd46a756d227f9ad0d3fd8c452d630267eef3",
      "transactionType": "CREATE2",
      "contractName": "AuctionRepoHook",
      "contractAddress": "0x31e40b7cfc3df606272ba24a7d961466a5dc1000",
      "function": null,
      "arguments": [
        "0xb1860D529182ac3BC1F51Fa2ABd56662b7D13f33",
        "0x17B354dD2595411ff79041f930e491A4Df39A278",
        "0x79A02482A880bCE3F13e09Da970dC34db4CD24d1",
        "0x2f131a86C5CB54685f0E940B920c54E152a44B02"
      ],
      "transaction": {
        "from": "0x2f131a86c5cb54685f0e940b920c54e152a44b02",
        "to": "0x4e59b44847b379578588920ca78fbf26c0b4956c",
        "value": "0x0",
        "input": "0x000000000000000000000000000000000000000000000000000000000000b80460e03461011c57601f61085d38819003918201601f19168301916001600160401b038311848410176101205780849260809460405283398101031261011c578051906001600160a01b038216820361011c576020810151916001600160a01b038316830361011c5761007f606061007860408501610134565b9301610134565b6080919091526001600160a01b0316918215610109575f80546001600160a01b031981168517825560405194916001600160a01b03909116907f8be0079c531659141344cd1fd0a4f28419497f9722a3daafe3b4186f6b6457e09080a360a05260c0526107149081610149823960805181610183015260a0518161033c015260c051816105a80152f35b631e4fbdf760e01b5f525f60045260245ffd5b5f80fd5b634e487b7160e01b5f52604160045260245ffd5b51906001600160a01b038216820361011c5756fe6080806040526004361015610012575f80fd5b5f3560e01c908163182148ef146105cc57508063217a4b70146105895780636fe7e6eb146103dc578063715018a6146103855780638da5cb5b146103605780639f50b66d1461031d578063c4e833ce146101c0578063d06bf8a5146101a7578063dc4c90d314610164578063deed34db146101355763f2fde38b14610095575f80fd5b34610131576020366003190112610131576001600160a01b036100b661062b565b6100be61069f565b168015610105576001600160a01b035f54826001600160a01b03198216175f55167f8be0079c531659141344cd1fd0a4f28419497f9722a3daafe3b4186f6b6457e05f80a3005b7f1e4fbdf7000000000000000000000000000000000000000000000000000000005f525f60045260245ffd5b5f80fd5b346101315760403660031901126101315761014e61062b565b50602435801515036101315761016261069f565b005b34610131575f3660031901126101315760206040516001600160a01b037f0000000000000000000000000000000000000000000000000000000000000000168152f35b346101315760203660031901126101315761016261069f565b34610131575f366003190112610131575f6101a06101dc610651565b8281528260208201528260408201528260608201528260808201528260a08201528260c08201528260e0820152826101008201528261012082015282610140820152826101608201528261018082015201526101c0602061023b610651565b5f81528181019060018252604081015f8152606082015f8152608083015f815260a084015f815260c085015f815260e08601905f82526101008701925f84526101208801945f86526101408901965f88526101608a01985f8a526101a06101808c019b5f8d52019b5f8d526040519d8e915f835251151591015251151560408d015251151560608c015251151560808b015251151560a08a015251151560c089015251151560e08801525115156101008701525115156101208601525115156101408501525115156101608401525115156101808301525115156101a0820152f35b34610131575f3660031901126101315760206040516001600160a01b037f0000000000000000000000000000000000000000000000000000000000000000168152f35b34610131575f3660031901126101315760206001600160a01b035f5416604051908152f35b34610131575f3660031901126101315761039d61069f565b5f6001600160a01b0381546001600160a01b031981168355167f8be0079c531659141344cd1fd0a4f28419497f9722a3daafe3b4186f6b6457e08280a3005b3461013157610100366003190112610131576103f661062b565b5060a03660231901126101315760c4356001600160a01b038116036101315761041d610641565b506024356001600160a01b03811680820361013157806001600160a01b03196001541617600155604435916001600160a01b03831680840361013157806001600160a01b0319600254161760025560643562ffffff8116908181036101315760025491608435918260020b93848403610131577fffffffffffff000000000000ffffffffffffffffffffffffffffffffffffffff76ffffff00000000000000000000000000000000000000008560b81b79ffffff0000000000000000000000000000000000000000000000169360a01b169116171760025560a435936001600160a01b038516809503610131577fe54330d463931a9c09a3a8aa62426498212833c904ea12e3fdbc1c463523ec259760a097866001600160a01b031960035416176003556040519750875250602086015260408501525060608301526080820152a160206040517f6fe7e6eb000000000000000000000000000000000000000000000000000000008152f35b34610131575f3660031901126101315760206040516001600160a01b037f0000000000000000000000000000000000000000000000000000000000000000168152f35b34610131575f3660031901126101315760a0906001600160a01b03600154166002546001600160a01b03600354169183526001600160a01b038116602084015262ffffff81851c16604084015260b81c60020b60608301526080820152f35b600435906001600160a01b038216820361013157565b60e435908160020b820361013157565b604051906101c0820182811067ffffffffffffffff82111761067257604052565b7f4e487b71000000000000000000000000000000000000000000000000000000005f52604160045260245ffd5b6001600160a01b035f541633036106b257565b7f118cdaa7000000000000000000000000000000000000000000000000000000005f523360045260245ffdfea2646970667358221220e78cf832f75e54da8f56e7fda17d26c39f6f7178a7979c0a57e2764761536bf664736f6c634300081a0033000000000000000000000000b1860d529182ac3bc1f51fa2abd56662b7d13f3300000000000000000000000017b354dd2595411ff79041f930e491a4df39a27800000000000000000000000079a02482a880bce3f13e09da970dc34db4cd24d10000000000000000000000002f131a86c5cb54685f0e940b920c54e152a44b02",
        "nonce": "0x0",
        "chainId": "0x1e0"
      },
      "additionalContracts": [],
      "isFixedGasLimit": false
    },
    {
      "hash": "0x9b9155dcc27c3a99167853a09a20d580eba861eae82c18463b6ad9da1a097f68",
      "transactionType": "CALL",
      "contractName": "AuctionRepoHook",
      "contractAddress": "0x31e40b7cfc3df606272ba24a7d961466a5dc1000",
      "function": "setCollateralAllowed(address,bool)",
      "arguments": [
        "0x2cFc85d8E48F8EAB294be644d9E25C3030863003",
        "true"
      ],
      "transaction": {
        "from": "0x2f131a86c5cb54685f0e940b920c54e152a44b02",
        "to": "0x31e40b7cfc3df606272ba24a7d961466a5dc1000",
        "value": "0x0",
        "input": "0xdeed34db0000000000000000000000002cfc85d8e48f8eab294be644d9e25c30308630030000000000000000000000000000000000000000000000000000000000000001",
        "nonce": "0x1",
        "chainId": "0x1e0"
      },
      "additionalContracts": [],
      "isFixedGasLimit": false
    },
    {
      "hash": "0xc8a341c4a3a9d57efa9b0aaa23529be702ee6f24e3e52963aee82fef3646985a",
      "transactionType": "CALL",
      "contractName": "AuctionRepoHook",
      "contractAddress": "0x31e40b7cfc3df606272ba24a7d961466a5dc1000",
      "function": "addMarket(uint256)",
      "arguments": [
        "1746486721"
      ],
      "transaction": {
        "from": "0x2f131a86c5cb54685f0e940b920c54e152a44b02",
        "to": "0x31e40b7cfc3df606272ba24a7d961466a5dc1000",
        "value": "0x0",
        "input": "0xd06bf8a500000000000000000000000000000000000000000000000000000000681945c1",
        "nonce": "0x2",
        "chainId": "0x1e0"
      },
      "additionalContracts": [],
      "isFixedGasLimit": false
    },
    {
      "hash": "0x951eba20c35df283dc57ec7f7514f4064daba664f52ed034ccfac8d4ec927548",
      "transactionType": "CALL",
      "contractName": "AuctionRepoHook",
      "contractAddress": "0x31e40b7cfc3df606272ba24a7d961466a5dc1000",
      "function": "addMarket(uint256)",
      "arguments": [
        "1751670721"
      ],
      "transaction": {
        "from": "0x2f131a86c5cb54685f0e940b920c54e152a44b02",
        "to": "0x31e40b7cfc3df606272ba24a7d961466a5dc1000",
        "value": "0x0",
        "input": "0xd06bf8a50000000000000000000000000000000000000000000000000000000068685fc1",
        "nonce": "0x3",
        "chainId": "0x1e0"
      },
      "additionalContracts": [],
      "isFixedGasLimit": false
    },
    {
      "hash": "0x6e60e1a5cc269a1614a013b254c94ada3627e2a583eab8b138eafd1cc85a6d56",
      "transactionType": "CALL",
      "contractName": "AuctionRepoHook",
      "contractAddress": "0x31e40b7cfc3df606272ba24a7d961466a5dc1000",
      "function": "addMarket(uint256)",
      "arguments": [
        "1759446721"
      ],
      "transaction": {
        "from": "0x2f131a86c5cb54685f0e940b920c54e152a44b02",
        "to": "0x31e40b7cfc3df606272ba24a7d961466a5dc1000",
        "value": "0x0",
        "input": "0xd06bf8a50000000000000000000000000000000000000000000000000000000068df06c1",
        "nonce": "0x4",
        "chainId": "0x1e0"
      },
      "additionalContracts": [],
      "isFixedGasLimit": false
    }
  ],
  "receipts": [
    {
      "status": "0x1",
      "cumulativeGasUsed": "0x5a1a03",
      "logs": [
        {
          "address": "0x31e40b7cfc3df606272ba24a7d961466a5dc1000",
          "topics": [
            "0x8be0079c531659141344cd1fd0a4f28419497f9722a3daafe3b4186f6b6457e0",
            "0x0000000000000000000000000000000000000000000000000000000000000000",
            "0x0000000000000000000000002f131a86c5cb54685f0e940b920c54e152a44b02"
          ],
          "data": "0x",
          "blockHash": "0xd49729938aae9dfb2e90eb82f824d6f7aade47769d7ad4905b1be60b39a34c8d",
          "blockNumber": "0xbb5f00",
          "transactionHash": "0x5863bb8fb2001a0e3d931798d15bd46a756d227f9ad0d3fd8c452d630267eef3",
          "transactionIndex": "0x5",
          "logIndex": "0xd",
          "removed": false
        }
      ],
      "logsBloom": "0x00000000000000000000000000000000000000000000000000800000000000000000000000000000000000000000000000000000000000000000000000000000000000000000000000000000000000000801000000000000000000000000000000000000220000000000000000000800000000100000000000000000000000400000000000000000000000000000000000000000000000000000000000000000000000000000000000000000000000000000000000000000000000000000000000000000000000000000000000000000000004000000000000000000000020000000040000000000000000000000000004000000000000000000000000000000",
      "type": "0x2",
      "transactionHash": "0x5863bb8fb2001a0e3d931798d15bd46a756d227f9ad0d3fd8c452d630267eef3",
      "transactionIndex": "0x5",
      "blockHash": "0xd49729938aae9dfb2e90eb82f824d6f7aade47769d7ad4905b1be60b39a34c8d",
      "blockNumber": "0xbb5f00",
      "gasUsed": "0x73a8f",
      "effectiveGasPrice": "0x387",
      "from": "0x2f131a86c5cb54685f0e940b920c54e152a44b02",
      "to": "0x4e59b44847b379578588920ca78fbf26c0b4956c",
      "contractAddress": null,
      "l1BaseFeeScalar": "0x21f9",
      "l1BlobBaseFee": "0x1",
      "l1BlobBaseFeeScalar": "0xdd3ef",
      "l1Fee": "0x115ebd7d58",
      "l1GasPrice": "0x192a1ddf",
      "l1GasUsed": "0x4f5e"
    },
    {
      "status": "0x1",
      "cumulativeGasUsed": "0x1397215",
      "logs": [],
      "logsBloom": "0x00000000000000000000000000000000000000000000000000000000000000000000000000000000000000000000000000000000000000000000000000000000000000000000000000000000000000000000000000000000000000000000000000000000000000000000000000000000000000000000000000000000000000000000000000000000000000000000000000000000000000000000000000000000000000000000000000000000000000000000000000000000000000000000000000000000000000000000000000000000000000000000000000000000000000000000000000000000000000000000000000000000000000000000000000000000",
      "type": "0x2",
      "transactionHash": "0x9b9155dcc27c3a99167853a09a20d580eba861eae82c18463b6ad9da1a097f68",
      "transactionIndex": "0xf",
      "blockHash": "0x8c2e785bc2279b6ceafe6c2bd0ad7d1ecd3d58d28a0287c3be8d59cbb79f62e5",
      "blockNumber": "0xbb5f04",
      "gasUsed": "0x5e68",
      "effectiveGasPrice": "0x388",
      "from": "0x2f131a86c5cb54685f0e940b920c54e152a44b02",
      "to": "0x31e40b7cfc3df606272ba24a7d961466a5dc1000",
      "contractAddress": null,
      "l1BaseFeeScalar": "0x21f9",
      "l1BlobBaseFee": "0x1",
      "l1BlobBaseFeeScalar": "0xdd3ef",
      "l1Fee": "0x1493728af",
      "l1GasPrice": "0x17a8a02c",
      "l1GasUsed": "0x640"
    },
    {
      "status": "0x1",
      "cumulativeGasUsed": "0x4ed696",
      "logs": [],
      "logsBloom": "0x00000000000000000000000000000000000000000000000000000000000000000000000000000000000000000000000000000000000000000000000000000000000000000000000000000000000000000000000000000000000000000000000000000000000000000000000000000000000000000000000000000000000000000000000000000000000000000000000000000000000000000000000000000000000000000000000000000000000000000000000000000000000000000000000000000000000000000000000000000000000000000000000000000000000000000000000000000000000000000000000000000000000000000000000000000000",
      "type": "0x2",
      "transactionHash": "0xc8a341c4a3a9d57efa9b0aaa23529be702ee6f24e3e52963aee82fef3646985a",
      "transactionIndex": "0x8",
      "blockHash": "0x04f7add89d53ccd31861ae457636a30635919436ea5854ccc096828740f1331c",
      "blockNumber": "0xbb5f08",
      "gasUsed": "0x5c86",
      "effectiveGasPrice": "0x38b",
      "from": "0x2f131a86c5cb54685f0e940b920c54e152a44b02",
      "to": "0x31e40b7cfc3df606272ba24a7d961466a5dc1000",
      "contractAddress": null,
      "l1BaseFeeScalar": "0x21f9",
      "l1BlobBaseFee": "0x1",
      "l1BlobBaseFeeScalar": "0xdd3ef",
      "l1Fee": "0x165a1d222",
      "l1GasPrice": "0x19b36935",
      "l1GasUsed": "0x640"
    },
    {
      "status": "0x1",
      "cumulativeGasUsed": "0xad5000",
      "logs": [],
      "logsBloom": "0x00000000000000000000000000000000000000000000000000000000000000000000000000000000000000000000000000000000000000000000000000000000000000000000000000000000000000000000000000000000000000000000000000000000000000000000000000000000000000000000000000000000000000000000000000000000000000000000000000000000000000000000000000000000000000000000000000000000000000000000000000000000000000000000000000000000000000000000000000000000000000000000000000000000000000000000000000000000000000000000000000000000000000000000000000000000",
      "type": "0x2",
      "transactionHash": "0x951eba20c35df283dc57ec7f7514f4064daba664f52ed034ccfac8d4ec927548",
      "transactionIndex": "0xa",
      "blockHash": "0x396ccb6f191f090476afa545d87d87da4f43fa97d8c1217fab0f1b322e39ffa3",
      "blockNumber": "0xbb5f0b",
      "gasUsed": "0x5c86",
      "effectiveGasPrice": "0x389",
      "from": "0x2f131a86c5cb54685f0e940b920c54e152a44b02",
      "to": "0x31e40b7cfc3df606272ba24a7d961466a5dc1000",
      "contractAddress": null,
      "l1BaseFeeScalar": "0x21f9",
      "l1BlobBaseFee": "0x1",
      "l1BlobBaseFeeScalar": "0xdd3ef",
      "l1Fee": "0x165a1d222",
      "l1GasPrice": "0x19b36935",
      "l1GasUsed": "0x640"
    },
    {
      "status": "0x1",
      "cumulativeGasUsed": "0xb4dd20",
      "logs": [],
      "logsBloom": "0x00000000000000000000000000000000000000000000000000000000000000000000000000000000000000000000000000000000000000000000000000000000000000000000000000000000000000000000000000000000000000000000000000000000000000000000000000000000000000000000000000000000000000000000000000000000000000000000000000000000000000000000000000000000000000000000000000000000000000000000000000000000000000000000000000000000000000000000000000000000000000000000000000000000000000000000000000000000000000000000000000000000000000000000000000000000",
      "type": "0x2",
      "transactionHash": "0x6e60e1a5cc269a1614a013b254c94ada3627e2a583eab8b138eafd1cc85a6d56",
      "transactionIndex": "0xc",
      "blockHash": "0x97ab93c16b6a5685a344e32a3481b7161ff9a91cf59a16e9921c8d175c50d888",
      "blockNumber": "0xbb5f0e",
      "gasUsed": "0x5c86",
      "effectiveGasPrice": "0x389",
      "from": "0x2f131a86c5cb54685f0e940b920c54e152a44b02",
      "to": "0x31e40b7cfc3df606272ba24a7d961466a5dc1000",
      "contractAddress": null,
      "l1BaseFeeScalar": "0x21f9",
      "l1BlobBaseFee": "0x1",
      "l1BlobBaseFeeScalar": "0xdd3ef",
      "l1Fee": "0x14d8e504a",
      "l1GasPrice": "0x17f87a40",
      "l1GasUsed": "0x640"
    }
  ],
  "libraries": [],
  "pending": [],
  "returns": {},
  "timestamp": 1743894772,
  "chain": 480,
  "commit": "35bbee6e"
}